{
  "contractName": "Voting",
  "abi": [
    {
      "inputs": [
        {
          "internalType": "address",
          "name": "_token",
          "type": "address"
        },
        {
          "internalType": "string[]",
          "name": "proposalNames",
          "type": "string[]"
        }
      ],
      "payable": false,
      "stateMutability": "nonpayable",
      "type": "constructor"
    },
    {
      "constant": true,
      "inputs": [],
      "name": "admin",
      "outputs": [
        {
          "internalType": "address",
          "name": "",
          "type": "address"
        }
      ],
      "payable": false,
      "stateMutability": "view",
      "type": "function"
    },
    {
      "constant": true,
      "inputs": [
        {
          "internalType": "address",
          "name": "",
          "type": "address"
        }
      ],
      "name": "hasVoted",
      "outputs": [
        {
          "internalType": "bool",
          "name": "",
          "type": "bool"
        }
      ],
      "payable": false,
      "stateMutability": "view",
      "type": "function"
    },
    {
      "constant": true,
      "inputs": [
        {
          "internalType": "uint256",
          "name": "",
          "type": "uint256"
        }
      ],
      "name": "proposals",
      "outputs": [
        {
          "internalType": "string",
          "name": "name",
          "type": "string"
        },
        {
          "internalType": "uint256",
          "name": "voteCount",
          "type": "uint256"
        }
      ],
      "payable": false,
      "stateMutability": "view",
      "type": "function"
    },
    {
      "constant": true,
      "inputs": [],
      "name": "voteFee",
      "outputs": [
        {
          "internalType": "uint256",
          "name": "",
          "type": "uint256"
        }
      ],
      "payable": false,
      "stateMutability": "view",
      "type": "function"
    },
    {
      "constant": true,
      "inputs": [],
      "name": "wfoToken",
      "outputs": [
        {
          "internalType": "contract IERC20",
          "name": "",
          "type": "address"
        }
      ],
      "payable": false,
      "stateMutability": "view",
      "type": "function"
    },
    {
      "constant": false,
      "inputs": [
        {
          "internalType": "uint256",
          "name": "proposalIndex",
          "type": "uint256"
        }
      ],
      "name": "vote",
      "outputs": [],
      "payable": false,
      "stateMutability": "nonpayable",
      "type": "function"
    },
    {
      "constant": true,
      "inputs": [],
      "name": "getProposalsCount",
      "outputs": [
        {
          "internalType": "uint256",
          "name": "",
          "type": "uint256"
        }
      ],
      "payable": false,
      "stateMutability": "view",
      "type": "function"
    },
    {
      "constant": true,
      "inputs": [
        {
          "internalType": "uint256",
          "name": "index",
          "type": "uint256"
        }
      ],
      "name": "getProposal",
      "outputs": [
        {
          "internalType": "string",
          "name": "",
          "type": "string"
        },
        {
          "internalType": "uint256",
          "name": "",
          "type": "uint256"
        }
      ],
      "payable": false,
      "stateMutability": "view",
      "type": "function"
    }
  ],
  "bytecode": "0x6080604052678ac7230489e800006002553480156200001d57600080fd5b5060405162000f8138038062000f8183398181016040526200004391908101906200030d565b816000806101000a81548173ffffffffffffffffffffffffffffffffffffffff021916908373ffffffffffffffffffffffffffffffffffffffff16021790555033600160006101000a81548173ffffffffffffffffffffffffffffffffffffffff021916908373ffffffffffffffffffffffffffffffffffffffff16021790555060008090505b8151811015620001655760036040518060400160405280848481518110620000ee57fe5b602002602001015181526020016000815250908060018154018082558091505090600182039060005260206000209060020201600090919290919091506000820151816000019080519060200190620001499291906200016e565b50602082015181600101555050508080600101915050620000ca565b5050506200046f565b828054600181600116156101000203166002900490600052602060002090601f016020900481019282601f10620001b157805160ff1916838001178555620001e2565b82800160010185558215620001e2579182015b82811115620001e1578251825591602001919060010190620001c4565b5b509050620001f19190620001f5565b5090565b6200021a91905b8082111562000216576000816000905550600101620001fc565b5090565b90565b6000815190506200022e8162000455565b92915050565b600082601f8301126200024657600080fd5b81516200025d620002578262000395565b62000367565b9150818183526020840193506020810190508360005b83811015620002a757815186016200028c8882620002b1565b84526020840193506020830192505060018101905062000273565b5050505092915050565b600082601f830112620002c357600080fd5b8151620002da620002d482620003be565b62000367565b91508082526020830160208301858383011115620002f757600080fd5b620003048382846200041f565b50505092915050565b600080604083850312156200032157600080fd5b600062000331858286016200021d565b925050602083015167ffffffffffffffff8111156200034f57600080fd5b6200035d8582860162000234565b9150509250929050565b6000604051905081810181811067ffffffffffffffff821117156200038b57600080fd5b8060405250919050565b600067ffffffffffffffff821115620003ad57600080fd5b602082029050602081019050919050565b600067ffffffffffffffff821115620003d657600080fd5b601f19601f8301169050602081019050919050565b6000620003f882620003ff565b9050919050565b600073ffffffffffffffffffffffffffffffffffffffff82169050919050565b60005b838110156200043f57808201518184015260208101905062000422565b838111156200044f576000848401525b50505050565b6200046081620003eb565b81146200046c57600080fd5b50565b610b02806200047f6000396000f3fe608060405234801561001057600080fd5b50600436106100885760003560e01c8063bb1d5a851161005b578063bb1d5a8514610128578063c7f758a814610146578063da2b4c1e14610177578063f851a4401461019557610088565b80630121b93f1461008d578063013cf08b146100a957806309eef43e146100da57806398e527d31461010a575b600080fd5b6100a760048036036100a291908101906106c4565b6101b3565b005b6100c360048036036100be91908101906106c4565b6103db565b6040516100d19291906108e2565b60405180910390f35b6100f460048036036100ef9190810190610672565b6104a4565b604051610101919061087c565b60405180910390f35b6101126104c4565b60405161011f9190610952565b60405180910390f35b6101306104d1565b60405161013d9190610897565b60405180910390f35b610160600480360361015b91908101906106c4565b6104f6565b60405161016e9291906108b2565b60405180910390f35b61017f6105ed565b60405161018c9190610952565b60405180910390f35b61019d6105f3565b6040516101aa919061082a565b60405180910390f35b600460003373ffffffffffffffffffffffffffffffffffffffff1673ffffffffffffffffffffffffffffffffffffffff16815260200190815260200160002060009054906101000a900460ff1615610240576040517f08c379a000000000000000000000000000000000000000000000000000000000815260040161023790610932565b60405180910390fd5b6000809054906101000a900473ffffffffffffffffffffffffffffffffffffffff1673ffffffffffffffffffffffffffffffffffffffff166323b872dd33600160009054906101000a900473ffffffffffffffffffffffffffffffffffffffff166002546040518463ffffffff1660e01b81526004016102c293929190610845565b602060405180830381600087803b1580156102dc57600080fd5b505af11580156102f0573d6000803e3d6000fd5b505050506040513d601f19601f82011682018060405250610314919081019061069b565b610353576040517f08c379a000000000000000000000000000000000000000000000000000000000815260040161034a90610912565b60405180910390fd5b60016003828154811061036257fe5b9060005260206000209060020201600101600082825401925050819055506001600460003373ffffffffffffffffffffffffffffffffffffffff1673ffffffffffffffffffffffffffffffffffffffff16815260200190815260200160002060006101000a81548160ff02191690831515021790555050565b600381815481106103e857fe5b9060005260206000209060020201600091509050806000018054600181600116156101000203166002900480601f0160208091040260200160405190810160405280929190818152602001828054600181600116156101000203166002900480156104945780601f1061046957610100808354040283529160200191610494565b820191906000526020600020905b81548152906001019060200180831161047757829003601f168201915b5050505050908060010154905082565b60046020528060005260406000206000915054906101000a900460ff1681565b6000600380549050905090565b6000809054906101000a900473ffffffffffffffffffffffffffffffffffffffff1681565b60606000610502610619565b6003848154811061050f57fe5b9060005260206000209060020201604051806040016040529081600082018054600181600116156101000203166002900480601f0160208091040260200160405190810160405280929190818152602001828054600181600116156101000203166002900480156105c15780601f10610596576101008083540402835291602001916105c1565b820191906000526020600020905b8154815290600101906020018083116105a457829003601f168201915b505050505081526020016001820154815250509050806000015181602001518191509250925050915091565b60025481565b600160009054906101000a900473ffffffffffffffffffffffffffffffffffffffff1681565b604051806040016040528060608152602001600081525090565b60008135905061064281610a7a565b92915050565b60008151905061065781610a91565b92915050565b60008135905061066c81610aa8565b92915050565b60006020828403121561068457600080fd5b600061069284828501610633565b91505092915050565b6000602082840312156106ad57600080fd5b60006106bb84828501610648565b91505092915050565b6000602082840312156106d657600080fd5b60006106e48482850161065d565b91505092915050565b6106f6816109dc565b82525050565b61070581610994565b82525050565b610714816109a6565b82525050565b610723816109ee565b82525050565b600061073482610978565b61073e8185610983565b935061074e818560208601610a36565b61075781610a69565b840191505092915050565b600061076d8261096d565b6107778185610983565b9350610787818560208601610a36565b61079081610a69565b840191505092915050565b60006107a8600f83610983565b91507f5472616e73666572206661696c656400000000000000000000000000000000006000830152602082019050919050565b60006107e8600d83610983565b91507f416c726561647920766f746564000000000000000000000000000000000000006000830152602082019050919050565b610824816109d2565b82525050565b600060208201905061083f60008301846106fc565b92915050565b600060608201905061085a60008301866106ed565b61086760208301856106fc565b610874604083018461081b565b949350505050565b6000602082019050610891600083018461070b565b92915050565b60006020820190506108ac600083018461071a565b92915050565b600060408201905081810360008301526108cc8185610729565b90506108db602083018461081b565b9392505050565b600060408201905081810360008301526108fc8185610762565b905061090b602083018461081b565b9392505050565b6000602082019050818103600083015261092b8161079b565b9050919050565b6000602082019050818103600083015261094b816107db565b9050919050565b6000602082019050610967600083018461081b565b92915050565b600081519050919050565b600081519050919050565b600082825260208201905092915050565b600061099f826109b2565b9050919050565b60008115159050919050565b600073ffffffffffffffffffffffffffffffffffffffff82169050919050565b6000819050919050565b60006109e782610a12565b9050919050565b60006109f982610a00565b9050919050565b6000610a0b826109b2565b9050919050565b6000610a1d82610a24565b9050919050565b6000610a2f826109b2565b9050919050565b60005b83811015610a54578082015181840152602081019050610a39565b83811115610a63576000848401525b50505050565b6000601f19601f8301169050919050565b610a8381610994565b8114610a8e57600080fd5b50565b610a9a816109a6565b8114610aa557600080fd5b50565b610ab1816109d2565b8114610abc57600080fd5b5056fea365627a7a723158203fe5c5edd58ca6f65b8fd8d83c374acafd0f60c52a3e1ffdcecd29bb82a77ebc6c6578706572696d656e74616cf564736f6c63430005100040",
  "source": "pragma solidity ^0.5.16;\r\n\r\npragma experimental ABIEncoderV2;\r\n\r\ninterface IERC20 {\r\n    function transferFrom(address sender, address recipient, uint amount) external returns (bool);\r\n}\r\n\r\ncontract Voting {\r\n    IERC20 public wfoToken;\r\n    address public admin;\r\n    uint public voteFee = 10 * 10**18;\r\n\r\n    struct Proposal {\r\n        string name;\r\n        uint voteCount;\r\n    }\r\n\r\n    Proposal[] public proposals;\r\n    mapping(address => bool) public hasVoted;\r\n\r\n    constructor(address _token, string[] memory proposalNames) public {\r\n        wfoToken = IERC20(_token);\r\n        admin = msg.sender;\r\n\r\n        for (uint i = 0; i < proposalNames.length; i++) {\r\n            proposals.push(Proposal({\r\n                name: proposalNames[i],\r\n                voteCount: 0\r\n            }));\r\n        }\r\n    }\r\n\r\n    function vote(uint proposalIndex) public {\r\n        require(!hasVoted[msg.sender], \"Already voted\");\r\n        require(wfoToken.transferFrom(msg.sender, admin, voteFee), \"Transfer failed\");\r\n\r\n        proposals[proposalIndex].voteCount += 1;\r\n        hasVoted[msg.sender] = true;\r\n    }\r\n\r\n    function getProposalsCount() public view returns (uint) {\r\n        return proposals.length;\r\n    }\r\n\r\n    function getProposal(uint index) public view returns (string memory, uint) {\r\n        Proposal memory p = proposals[index];\r\n        return (p.name, p.voteCount);\r\n    }\r\n}\r\n",
  "sourcePath": "D:\\voting-dapp\\contracts\\Voting.sol",
  "compiler": {
    "name": "solc",
    "version": "0.5.16+commit.9c3226ce.Emscripten.clang"
  },
  "schemaVersion": "3.4.16",
  "updatedAt": "2025-05-29T11:24:57.546Z",
  "networkType": "ethereum",
  "devdoc": {
    "methods": {}
  },
  "userdoc": {
    "methods": {}
  }
}